:100000000C9462000C948A000C948A000C948A0070
:100010000C948A000C948A000C948A000C948A0038
:100020000C948A000C948A000C948A000C948A0028
:100030000C948A000C948A000C948A000C948A0018
:100040000C9492010C948A000C9402030C944903C2
:100050000C948A000C948A000C948A000C948A00F8
:100060000C948A000C948A000000000024002700F1
:100070002A0000000000250028002B0000000000DE
:1000800023002600290004040404040404040202DA
:100090000202020203030303030301020408102007
:1000A0004080010204081020010204081020000012
:1000B0000007000201000003040600000000000029
:1000C0000000AF0411241FBECFEFD8E0DEBFCDBFCC
:1000D00011E0A0E0B1E0E2E6F3E102C005900D928C
:1000E000AE32B107D9F711E0AEE2B1E001C01D9226
:1000F000AE3FB107E1F710E0C4ECD0E004C02297B6
:10010000FE010E945909C23CD107C9F70E94FF04B1
:100110000C94AF090C940000A0E0B0E0E2E9F0E03C
:100120000C948009EC01A880B980CA80DB80A114FE
:10013000B104C104D10441F484E2A82E89EDB82EA3
:100140008BE5C82E87E0D82EC601B5012DE133EF2F
:1001500041E050E00E945D0927EA31E440E050E0D0
:100160000E9416097B018C01C601B5012DE133EF18
:1001700041E050E00E945D09CA01B9012CEE34EF64
:100180004FEF5FEF0E9416096E0D7F1D801F911FBC
:1001900097FF04C061507040804090486883798325
:1001A0008A839B839B01AC015F77B901CA01CDB7FC
:1001B000DEB7EAE00C949C090E948C0008958AE066
:1001C00091E00E948C00089560930A0170930B01E6
:1001D00080930C0190930D0108950E94DF000E940E
:1001E000E40720E030E040E050E30E94B3080895C7
:1001F000CF93DF938FED91E060E071E00E94CD0638
:10020000CEE2D1E049915991699179918FED91E0D8
:1002100022E030E00E94BA0681E0CE34D80791F7A0
:10022000DF91CF910895CF93DF93CEE2D1E0688143
:1002300079818A819B8127E137EB41ED58E30E9468
:10024000E0069B01AC0160E070E080E090E00E947D
:100250001F08699379938993999381E0CE34D807E5
:1002600031F7DF91CF910895EF92FF920F931F9393
:10027000CF93DF93CEE0D1E00EE211E0E8800E9460
:10028000ED00FF24F80120813181428153810E94D9
:100290004507882314F4FF24F3948E2D6F2D0E94BC
:1002A000AD0222960C5F1F4FF1E0CE31DF0731F730
:1002B000DF91CF911F910F91FF90EF9008950E94D1
:1002C00034010E9413016AE070E080E090E00E9437
:1002D000DA0108950F931F93CF93DF938FED91E091
:1002E00040E855E260E070E00E948403CEE0D1E097
:1002F0000EE211E0888161E00E946E020E94ED0032
:10030000F80161937193819391938F012296F1E0AB
:10031000CE31DF0779F70E94F800DF91CF911F916E
:100320000F9108951F920F920FB60F9211242F93E1
:100330003F938F939F93AF93BF938091520190917E
:100340005301A0915401B09155013091560101968D
:10035000A11DB11D232F2D5F2D3720F02D570196A4
:10036000A11DB11D2093560180935201909353011A
:10037000A0935401B093550180914E0190914F018B
:10038000A0915001B09151010196A11DB11D809322
:100390004E0190934F01A0935001B0935101BF9132
:1003A000AF919F918F913F912F910F900FBE0F9022
:1003B0001F9018959B01AC017FB7F89480914E0176
:1003C00090914F01A0915001B091510166B5A89B49
:1003D00005C06F3F19F00196A11DB11D7FBFBA2F57
:1003E000A92F982F8827860F911DA11DB11D62E0AE
:1003F000880F991FAA1FBB1F6A95D1F7BC012DC09A
:10040000FFB7F89480914E0190914F01A091500157
:10041000B0915101E6B5A89B05C0EF3F19F00196D8
:10042000A11DB11DFFBFBA2FA92F982F88278E0FAE
:10043000911DA11DB11DE2E0880F991FAA1FBB1FCE
:10044000EA95D1F7861B970B885E9340C8F221503E
:1004500030404040504068517C4F211531054105E6
:10046000510571F60895789484B5826084BD84B591
:10047000816084BD85B5826085BD85B5816085BD9F
:10048000EEE6F0E0808181608083E1E8F0E01082B8
:10049000808182608083808181608083E0E8F0E0F9
:1004A000808181608083E1EBF0E0808184608083E3
:1004B000E0EBF0E0808181608083EAE7F0E080811A
:1004C000846080838081826080838081816080837A
:1004D0008081806880831092C1000895CF93DF935C
:1004E000482F50E0CA0186569F4FFC0134914A576D
:1004F0005F4FFA018491882369F190E0880F991F7A
:10050000FC01E859FF4FA591B491FC01EE58FF4F53
:10051000C591D491662351F42FB7F8948C91932F01
:10052000909589238C93888189230BC0623061F474
:100530002FB7F8948C91932F909589238C93888171
:10054000832B88832FBF06C09FB7F8948C91832B91
:100550008C939FBFDF91CF910895482F50E0CA013F
:1005600082559F4FFC012491CA0186569F4FFC0182
:1005700094914A575F4FFA013491332309F440C0F4
:10058000222351F1233071F0243028F42130A1F0DE
:10059000223011F514C02630B1F02730C1F02430DC
:1005A000D9F404C0809180008F7703C080918000CF
:1005B0008F7D8093800010C084B58F7702C084B592
:1005C0008F7D84BD09C08091B0008F7703C080917A
:1005D000B0008F7D8093B000E32FF0E0EE0FFF1F9F
:1005E000EE58FF4FA591B4912FB7F894662321F4EC
:1005F0008C919095892302C08C91892B8C932FBF6D
:10060000089508951F920F920FB60F9211242F9301
:100610003F934F938F939F93EF93FF934091C60027
:1006200020919701309198012F5F3F4F2F733070C9
:100630008091990190919A012817390759F0E0911A
:100640009701F0919801E95AFE4F40833093980149
:1006500020939701FF91EF919F918F914F913F913F
:100660002F910F900FBE0F901F901895E091EB0106
:10067000F091EC01E05CFF4F8191919120813181FB
:10068000821B930B8F739070892B11F00E940103D2
:1006900008951F920F920FB60F9211242F933F933C
:1006A0008F939F93EF93FF932091DB013091DC01B7
:1006B0008091DD019091DE012817390731F4809196
:1006C000C1008F7D8093C10014C0E091DD01F091E5
:1006D000DE01E556FE4F20818091DD019091DE0123
:1006E00001968F7390709093DE018093DD012093CB
:1006F000C600FF91EF919F918F913F912F910F90A5
:100700000FBE0F901F901895AF92BF92DF92EF929D
:10071000FF920F931F93CF93DF93EC017A018B012C
:10072000DD24403081EE580780E0680780E07807DC
:1007300011F0DD24D39491E0A92EB12CEC89FD8930
:10074000DD2069F0C5010E8C02C0880F991F0A9444
:10075000E2F7808360E079E08DE390E005C01082ED
:1007600060E874E88EE190E0A80197010E943509E5
:100770002150304040405040569547953795279539
:1007800080E12030380720F0DD2011F0DD24D6CFC5
:10079000E889F9893083EA89FB892083EE89FF891A
:1007A000408121E030E0C9010A8C02C0880F991F06
:1007B0000A94E2F7482B4083EE89FF894081C90102
:1007C0000B8C02C0880F991F0A94E2F7482B4083D4
:1007D000EE89FF894081C9010C8C02C0880F991FE6
:1007E0000A94E2F7482B4083EE89FF8980810D8CC3
:1007F00002C0220F331F0A94E2F72095282320839A
:10080000DF91CF911F910F91FF90EF90DF90BF90FC
:10081000AF900895DC011C96ED91FC911D97E05C72
:10082000FF4F2191319180819181281B390B2F73CA
:100830003070C9010895DC011C96ED91FC911D9763
:10084000E05CFF4F20813181E054F040DF01AE5B7E
:10085000BF4F8D919C9111972817390719F42FEFED
:100860003FEF07C08D919C91E80FF91F8081282FE1
:1008700030E0C9010895DC011C96ED91FC911D97B3
:10088000E05CFF4F20813181E054F040DF01AE5B3E
:10089000BF4F8D919C9111972817390719F42FEFAD
:1008A0003FEF10C08D919C911197E80FF91F2081A7
:1008B0008D919C91119701968F73907011969C93D6
:1008C0008E9330E0C9010895FC0186859785DC018F
:1008D000A05CBF4FFC01EE5BFF4F2D913C91119747
:1008E0008081918128173907C1F70895CF93DF934D
:1008F000EC01EE85FF85E05CFF4F20813181E05403
:10090000F0402F5F3F4F2F733070DF01AE5BBF4F62
:100910008D919C91119728173907D1F3E05CFF4F17
:1009200080819181E054F040E80FF91F6083EE85EB
:10093000FF85E05CFF4F31832083EE89FF892081B2
:1009400081E090E00D8C02C0880F991F0A94E2F7B5
:10095000282B208381E090E0DF91CF9108951092C1
:10096000E2011092E10188EE93E0A0E0B0E0809314
:10097000E3019093E401A093E501B093E60182E2E4
:1009800091E09093E0018093DF0187E591E09093FF
:10099000EC018093EB018BE991E09093EE01809361
:1009A000ED0185EC90E09093F0018093EF0184ECF1
:1009B00090E09093F2018093F10180EC90E09093AD
:1009C000F4018093F30181EC90E09093F601809321
:1009D000F50186EC90E09093F8018093F70184E0B4
:1009E0008093F90183E08093FA0187E08093FB0113
:1009F00085E08093FC0181E08093FD010895CF9311
:100A0000DF930E9433020E946A01C6E3D3E00E9492
:100A10005F012097E1F30E943603F9CFCF92DF9276
:100A2000EF92FF920F931F93CF93DF937C016B01A3
:100A30008A01C0E0D0E00FC0D6016D916D01D701F1
:100A4000ED91FC910190F081E02DC7010995C80F4F
:100A5000D91F015010400115110571F7CE01DF912A
:100A6000CF911F910F91FF90EF90DF90CF9008955D
:100A7000EF92FF920F931F938C01DC01ED91FC919B
:100A80000190F081E02D6DE009957C01D801ED9198
:100A9000FC910190F081E02DC8016AE009959C016C
:100AA0002E0D3F1DC9011F910F91FF90EF900895EA
:100AB000CF93DF93DB010D900020E9F71197A61B80
:100AC000B70BEC01E881F9810280F381E02DAD01E3
:100AD0000995DF91CF9108954F925F927F928F9207
:100AE0009F92AF92BF92CF92DF92EF92FF920F93BD
:100AF0001F93DF93CF93CDB7DEB7A1970FB6F894CE
:100B0000DEBF0FBECDBF2C01742ECB01223008F406
:100B10002AE019A231E2C32ED12CCC0EDD1E822E8A
:100B20009924AA24BB24672D752FA50194010E9446
:100B3000350979018A01C801B701A50194010E9414
:100B40001609472D461B0894C108D1084A3014F4F1
:100B5000405D01C0495CF6014083E114F1040105E8
:100B6000110521F07E2C5F2DC801DDCFC201B60139
:100B70000E945805A1960FB6F894DEBF0FBECDBFF8
:100B8000CF91DF911F910F91FF90EF90DF90CF9069
:100B9000BF90AF909F908F907F905F904F900895FF
:100BA000DC012115310541F4ED91FC910190F081BA
:100BB000E02D642F099508950E946C050895CF9249
:100BC000DF92EF92FF920F931F93CF93DF93EC018D
:100BD0006A017B012115310541F4E881F981019019
:100BE000F081E02D642F09951FC02A303105D1F422
:100BF00077FF17C0E881F9810190F081E02D6DE267
:100C000009958C0144275527BA014C195D096E09D5
:100C10007F09CE012AE00E946C059801280F391F38
:100C200004C02AE00E946C059C01C901DF91CF91AC
:100C30001F910F91FF90EF90DF90CF9008957F92DA
:100C40008F929F92AF92BF92CF92DF92EF92FF92DC
:100C50000F931F93CF93DF934C017A018B01722E78
:100C6000CB01BA0120E030E040E050E00E944507AF
:100C700087FD03C0C0E0D0E00EC0D401ED91FC912F
:100C80000190F081E02DC4016DE20995EC0117FBA4
:100C9000109517F9109520E030E040E05FE3AA24BA
:100CA0000BC0CA01B90120E030E040E251E40E94EB
:100CB00049079B01AC01A394A71498F3C801B7019D
:100CC0000E94E1065B016C010E94B6077B018C016A
:100CD000C401B801A7012AE030E00E94D005C80F86
:100CE000D91F772039F0C40168E071E00E945805EF
:100CF000C80FD91FC801B7010E94E2079B01AC01D0
:100D0000C601B5010E94E00624C020E030E040E2C8
:100D100051E40E94B3087B018C010E94B1075B0182
:100D20006C01CC24B7FCC094DC2CC401B601A50135
:100D30002AE030E00E94DF05C80FD91FC601B501C7
:100D40000E94E4079B01AC01C801B7010E94E006C4
:100D50007A947720D1F6CE01DF91CF911F910F9138
:100D6000FF90EF90DF90CF90BF90AF909F908F90CB
:100D70007F900895EF92FF920F931F937C010E9442
:100D80001F068C01C7010E943805080F191FC801F2
:100D90001F910F91FF90EF900895EF92FF920F93A4
:100DA0001F937C010E9458058C01C7010E943805E1
:100DB000080F191FC8011F910F91FF90EF90089520
:100DC0005058BB27AA270ED094C185D130F08AD1C4
:100DD00020F031F49F3F11F41EF47AC10EF4E09537
:100DE000E7FB70C1E92F96D180F3BA17620773074A
:100DF0008407950718F071F49EF5AEC10EF4E095E6
:100E00000B2EBA2FA02D0B01B90190010C01CA01C4
:100E1000A0011124FF27591B99F0593F50F4503E6F
:100E200068F11A16F040A22F232F342F4427585F61
:100E3000F3CF469537952795A795F0405395C9F779
:100E40007EF41F16BA0B620B730B840BBAF0915031
:100E5000A1F0FF0FBB1F661F771F881FC2F70EC0D0
:100E6000BA0F621F731F841F48F4879577956795A3
:100E7000B795F7959E3F08F0B3CF9395880F08F08C
:100E80009927EE0F979587950895F8D008F481E09B
:100E900008950CD02EC126D140F01DD130F021F4A0
:100EA0005F3F19F00FC1511158C112C133D198F3EE
:100EB0009923C9F35523B1F3951B550BBB27AA27DB
:100EC00062177307840738F09F5F5F4F220F331F4D
:100ED000441FAA1FA9F333D00E2E3AF0E0E830D019
:100EE00091505040E695001CCAF729D0FE2F27D01C
:100EF000660F771F881FBB1F261737074807AB07EA
:100F0000B0E809F0BB0B802DBF01FF2793585F4F5E
:100F10002AF09E3F510568F0D5C01FC15F3FECF33A
:100F2000983EDCF3869577956795B795F7959F5F23
:100F3000C9F7880F911D9695879597F90895E1E077
:100F4000660F771F881FBB1F621773078407BA07D6
:100F500020F0621B730B840BBA0BEE1F88F7E09531
:100F6000089504D06894B111F8C00895DBD088F0DA
:100F70009F5790F0B92F9927B751A0F0D1F0660F85
:100F8000771F881F991F1AF0BA95C9F712C0B130A0
:100F900081F0E2D0B1E00895DFC0672F782F882775
:100FA000B85F39F0B93FCCF3869577956795B395DF
:100FB000D9F73EF490958095709561957F4F8F4F4E
:100FC0009F4F0895E89409C097FB3EF49095809553
:100FD000709561957F4F8F4F9F4F9923A9F0F92FFF
:100FE00096E9BB279395F695879577956795B7957D
:100FF000F111F8CFFAF4BB0F11F460FF1BC06F5F63
:101000007F4F8F4F9F4F16C0882311F096E911C074
:10101000772321F09EE8872F762F05C0662371F095
:1010200096E8862F70E060E02AF09A95660F771FA9
:10103000881FDAF7880F9695879597F90895990F85
:10104000BB0B550FAA0BE0E8FEEF16161706E807D4
:10105000F90770F012161306E407F50760F0BA17E7
:101060003CF049F46217730784079507A7951BF4B2
:10107000B901CA01BA2FB69597950895990F00083E
:10108000550FAA0BE0E8FEEF16161706E807F9075A
:10109000C0F012161306E407F50798F0621B730BF5
:1010A000840B950B39F40A2661F0232B242B252B76
:1010B00021F408950A2609F4A140A6958FEF811D19
:1010C000811D089597F99F6780E870E060E00895BA
:1010D0009FEF80EC089500240A9416161706180650
:1010E0000906089500240A9412161306140605062C
:1010F0000895092E0394000C11F4882352F0BB0FBD
:1011000040F4BF2B11F460FF04C06F5F7F4F8F4F1F
:101110009F4F089557FD9058440F551F59F05F3F5A
:1011200071F04795880F97FB991F61F09F3F79F009
:1011300087950895121613061406551FF2CF46958B
:10114000F1DF08C0161617061806991FF1CF86950D
:101150007105610508940895E894BB2766277727F1
:10116000CB0197F908950BD0C4CFB5DF28F0BADFD3
:1011700018F0952309F0A6CFABCF1124EECFCADF2C
:10118000A0F3959FD1F3950F50E0551F629FF0019A
:10119000729FBB27F00DB11D639FAA27F00DB11DF3
:1011A000AA1F649F6627B00DA11D661F829F22277C
:1011B000B00DA11D621F739FB00DA11D621F839F03
:1011C000A00D611D221F749F3327A00D611D231FD9
:1011D000849F600D211D822F762F6A2F11249F5727
:1011E00050408AF0E1F088234AF0EE0FFF1FBB1F4A
:1011F000661F771F881F91505040A9F79E3F5105E9
:1012000070F060CFAACF5F3FECF3983EDCF3869599
:1012100077956795B795F795E7959F5FC1F7FE2B93
:10122000880F911D9695879597F90895629FD00133
:10123000739FF001829FE00DF11D649FE00DF11D91
:10124000929FF00D839FF00D749FF00D659FF00D40
:101250009927729FB00DE11DF91F639FB00DE11D2D
:10126000F91FBD01CF0111240895A1E21A2EAA1B76
:10127000BB1BFD010DC0AA1FBB1FEE1FFF1FA21746
:10128000B307E407F50720F0A21BB30BE40BF50B43
:10129000661F771F881F991F1A9469F760957095CC
:1012A000809590959B01AC01BD01CF010895EE0F93
:1012B000FF1F0590F491E02D099497FB092E052658
:1012C0000ED057FD04D0D1DF0AD0001C38F4509561
:1012D0004095309521953F4F4F4F5F4F0895F6F75A
:1012E00090958095709561957F4F8F4F9F4F089592
:1012F0002F923F924F925F926F927F928F929F9226
:10130000AF92BF92CF92DF92EF92FF920F931F9313
:10131000CF93DF93CDB7DEB7CA1BDB0B0FB6F894C4
:10132000DEBF0FBECDBF09942A88398848885F8404
:101330006E847D848C849B84AA84B984C884DF8075
:10134000EE80FD800C811B81AA81B981CE0FD11D59
:101350000FB6F894DEBF0FBECDBFED010895F8942F
:02136000FFCFBD
:101362006C756D73202D3E002E00010000000600FA
:101372000C00040005000B0009000A000700000031
:0E138200000076040E050A043B041B046404FC
:00000001FF
