:100000000C9462000C948A000C948A000C948A0070
:100010000C948A000C948A000C948A000C94F401CD
:100020000C948A000C948A000C948A000C948A0028
:100030000C948A000C948A000C948A000C948A0018
:100040000C9473070C948A000C9495030C94DC03B5
:100050000C948A000C948A000C948A000C948A00F8
:100060000C948A000C948A000000000024002700F1
:100070002A0000000000250028002B0000000000DE
:1000800023002600290004040404040404040202DA
:100090000202020203030303030301020408102007
:1000A0004080010204081020010204081020000012
:1000B0000007000201000003040600000000000029
:1000C0000000420511241FBECFEFD8E0DEBFCDBF38
:1000D00011E0A0E0B1E0E8E5F6E102C005900D9284
:1000E000A033B107D9F712E0A0E3B1E001C01D923F
:1000F000A53BB107E1F710E0C4ECD0E004C02297C3
:10010000FE010E94EF0AC23CD107C9F70E94920586
:100110000C942A0B0C940000A0E0B0E0E2E9F0E0BF
:100120000C94FB0AEC01A880B980CA80DB80A11482
:10013000B104C104D10441F484E2A82E89EDB82EA3
:100140008BE5C82E87E0D82EC601B5012DE133EF2F
:1001500041E050E00E94D20A27EA31E440E050E05A
:100160000E94910A7B018C01C601B5012DE133EF9C
:1001700041E050E00E94D20ACA01B9012CEE34EFEE
:100180004FEF5FEF0E94910A6E0D7F1D801F911F40
:1001900097FF04C061507040804090486883798325
:1001A0008A839B839B01AC015F77B901CA01CDB7FC
:1001B000DEB7EAE00C94170B0E948C0008958AE0E9
:1001C00091E00E948C00089560930A0170930B01E6
:1001D00080930C0190930D0108950E94DF000E940E
:1001E000FA0820E030E040E050E30E94C909089599
:1001F000AF92BF92CF92DF92EF92FF920F931F9335
:100200005B016C0179018A010E94DF0022E030E08D
:1002100040E050E00E94D20A61507040804090401F
:10022000660F771F881F991F0E94FA08A80197017F
:100230000E94C9099B01AC01C601B5010E94F707E4
:100240007B018C0120E030E040E85FE30E945B0826
:1002500087FD0BC00F2EF0E0EF2EF0E0FF2EF0E850
:100260000F2FFFE31F2FF02D14C0C801B70120E0AE
:1002700030E040E050E00E945B08882354F40F2EE9
:10028000F0E0EF2EF0E0FF2EF0E00F2FF0E01F2F58
:10029000F02DB701C8011F910F91FF90EF90DF90F3
:1002A000CF90BF90AF900895CF93DF938DE892E009
:1002B00060E071E00E946007C0E3D1E0499159918C
:1002C000699179918DE892E022E030E00E944D073B
:1002D00081E0C035D80791F7DF91CF910895CF9392
:1002E000DF93C0E3D1E0688179818A819B8125E930
:1002F0003FEB46ED53E30E94F6079B01AC0160E043
:1003000070E080E090E00E943509699379938993C9
:10031000999381E0C035D80731F7DF91CF910895E7
:10032000EF92FF921F93CF93DF93CEE0D1E030E3C3
:10033000E32E31E0F32E1881F701619171918191E3
:1003400091917F010E94300A2DEC3CEC4CE45DE37E
:100350000E94F80020E030E048EC52E40E94C90915
:100360000E94CC089B01AC01812F622F40E00E94CB
:100370009C022296F1E0CE31DF07E9F6DF91CF91C2
:100380001F91FF90EF9008950E9490010E946F01CD
:1003900008950F931F93CF93DF938DE892E040E889
:1003A00055E260E070E00E94170480E00E947C0249
:1003B000CEE0D1E000E311E0888161E00E9401031A
:1003C0000E94ED00F80161937193819391938F01E5
:1003D0002296F1E0CE31DF0779F70E945401DF91D8
:1003E000CF911F910F9108951F920F920FB60F9208
:1003F00011242F933F934F935F936F938F939F930A
:10040000AF93BF93EF93FF9380911E018F5F809313
:100410001E0180911E01882319F0E1E5F1E041C041
:10042000E2E5F1E06681662319F48781882301F112
:100430008481282F30E0858190E0A901481B590B69
:100440001416150644F4662331F0860F911D8217A9
:10045000930764F40AC057FF09C04781442331F071
:10046000841B9109281739070CF49C01258302C0CD
:10047000848185838581882371F08081A181B28107
:100480009381882321F48C91892B8C9304C08C91C7
:10049000909598239C93399682E0E630F80711F600
:1004A000BCCF808187FD13C090911E018681891782
:1004B00071F48181A281B3819481882329F48C9184
:1004C000909598239C9303C08C91892B8C9339969B
:1004D00082E0E530F80729F7FF91EF91BF91AF91E6
:1004E0009F918F916F915F914F913F912F910F90BD
:1004F0000FBE0F901F901895282F81E087BB92E0C8
:100500009093B1009093B00082E88093B3009093F1
:10051000700080917000E1E5F1E08FEF808311823F
:100520001382128217821086399692E0E530F9071D
:10053000A9F72093500108951F93182F442329F001
:100540001092B2008FEF80931E01E1E5F1E09FEF82
:1005500020E0808117FF03C087FF03C005C081171B
:1005600019F4658317FF4BC09F3F19F4808187FD05
:10057000922F2F5F3996243161F717FD40C09F3FBE
:1005800009F43DC0892F992787FD9095DC0123E070
:10059000AA0FBB1F2A95E1F7A80FB91FAF5ABE4F8C
:1005A0001C932091500111962C931197412F5527A0
:1005B00047FD5095FA01EA57FF4FE491F0E0EE0F46
:1005C000FF1FEE58FF4F8591949113969C938E9345
:1005D000129746565F4FFA01849114968C931497A4
:1005E00015966C93222319F4812F60E002C0812FAD
:1005F00061E00E944003812F61E00E9401031F918E
:100600000895CF93DF93482F50E0CA0186569F4F3D
:10061000FC0134914A575F4FFA018491882369F1B4
:1006200090E0880F991FFC01E859FF4FA591B49104
:10063000FC01EE58FF4FC591D491662351F42FB7BA
:10064000F8948C91932F909589238C93888189239A
:100650000BC0623061F42FB7F8948C91932F909572
:1006600089238C938881832B88832FBF06C09FB7F3
:10067000F8948C91832B8C939FBFDF91CF91089539
:10068000482F50E0CA0182559F4FFC012491CA01B6
:1006900086569F4FFC0194914A575F4FFA0134915F
:1006A000332309F440C0222351F1233071F0243068
:1006B00028F42130A1F0223011F514C02630B1F019
:1006C0002730C1F02430D9F404C0809180008F77A6
:1006D00003C0809180008F7D8093800010C084B51E
:1006E0008F7702C084B58F7D84BD09C08091B00032
:1006F0008F7703C08091B0008F7D8093B000E32F8F
:10070000F0E0EE0FFF1FEE58FF4FA591B4912FB709
:10071000F894662321F48C919095892302C08C91E2
:10072000892B8C932FBF089508951F920F920FB6B7
:100730000F9211242F933F934F938F939F93EF9397
:10074000FF934091C60020914502309146022F5FF1
:100750003F4F2F73307080914702909148022817C5
:10076000390759F0E0914502F0914602EB5FFD4FE9
:1007700040833093460220934502FF91EF919F9171
:100780008F914F913F912F910F900FBE0F901F901F
:100790001895E0919902F0919A02E05CFF4F8191E7
:1007A000919120813181821B930B8F739070892BE3
:1007B00011F00E94940308951F920F920FB60F92AA
:1007C00011242F933F938F939F93EF93FF93209147
:1007D000890230918A0280918B0290918C022817B5
:1007E000390731F48091C1008F7D8093C10014C01E
:1007F000E0918B02F0918C02E75BFD4F20818091AC
:100800008B0290918C0201968F73907090938C0262
:1008100080938B022093C600FF91EF919F918F915F
:100820003F912F910F900FBE0F901F901895AF9290
:10083000BF92DF92EF92FF920F931F93CF93DF93BC
:10084000EC017A018B01DD24403081EE580780E015
:10085000680780E0780711F0DD24D39491E0A92E99
:10086000B12CEC89FD89DD2069F0C5010E8C02C038
:10087000880F991F0A94E2F7808360E079E08DE3A6
:1008800090E005C0108260E874E88EE190E0A80175
:1008900097010E94B00A2150304040405040569588
:1008A00047953795279580E12030380720F0DD20E7
:1008B00011F0DD24D6CFE889F9893083EA89FB89F4
:1008C0002083EE89FF89408121E030E0C9010A8C54
:1008D00002C0880F991F0A94E2F7482B4083EE89E3
:1008E000FF894081C9010B8C02C0880F991F0A94AF
:1008F000E2F7482B4083EE89FF894081C9010C8CC7
:1009000002C0880F991F0A94E2F7482B4083EE89B2
:10091000FF8980810D8C02C0220F331F0A94E2F7F9
:10092000209528232083DF91CF911F910F91FF9075
:10093000EF90DF90BF90AF900895DC011C96ED9191
:10094000FC911D97E05CFF4F219131918081918155
:10095000281B390B2F733070C9010895DC011C96D8
:10096000ED91FC911D97E05CFF4F20813181E054B7
:10097000F040DF01AE5BBF4F8D919C91119728171E
:10098000390719F42FEF3FEF07C08D919C91E80FC5
:10099000F91F8081282F30E0C9010895DC011C96E1
:1009A000ED91FC911D97E05CFF4F20813181E05477
:1009B000F040DF01AE5BBF4F8D919C9111972817DE
:1009C000390719F42FEF3FEF10C08D919C911197CB
:1009D000E80FF91F20818D919C91119701968F73DB
:1009E000907011969C938E9330E0C9010895FC019C
:1009F00086859785DC01A05CBF4FFC01EE5BFF4F55
:100A00002D913C9111978081918128173907C1F769
:100A10000895CF93DF93EC01EE85FF85E05CFF4FF7
:100A200020813181E054F0402F5F3F4F2F733070B1
:100A3000DF01AE5BBF4F8D919C911197281739074D
:100A4000D1F3E05CFF4F80819181E054F040E80FEA
:100A5000F91F6083EE85FF85E05CFF4F31832083C3
:100A6000EE89FF89208181E090E00D8C02C0880F23
:100A7000991F0A94E2F7282B208381E090E0DF9110
:100A8000CF9108951092900210928F0288EE93E019
:100A9000A0E0B0E08093910290939202A093930221
:100AA000B093940283E291E090938E0280938D0242
:100AB00085E092E090939A028093990289E492E013
:100AC00090939C0280939B0285EC90E090939E0211
:100AD00080939D0284EC90E09093A00280939F020B
:100AE00080EC90E09093A2028093A10281EC90E0D0
:100AF0009093A4028093A30286EC90E09093A602C8
:100B00008093A50284E08093A70283E08093A802EB
:100B100087E08093A90285E08093AA0281E0809318
:100B2000AB020895CF93DF930E94BB070E94C901D7
:100B3000C9ECD3E00E94C4012097E1F30E94C903ED
:100B4000F9CFCF92DF92EF92FF920F931F93CF9343
:100B5000DF937C016B018A01C0E0D0E00FC0D601B9
:100B60006D916D01D701ED91FC910190F081E02D27
:100B7000C7010995C80FD91F015010400115110573
:100B800071F7CE01DF91CF911F910F91FF90EF9000
:100B9000DF90CF900895EF92FF920F931F938C01F7
:100BA000DC01ED91FC910190F081E02D6DE0099563
:100BB0007C01D801ED91FC910190F081E02DC801FC
:100BC0006AE009959C012E0D3F1DC9011F910F91EF
:100BD000FF90EF900895CF93DF93DB010D900020FD
:100BE000E9F71197A61BB70BEC01E881F9810280A8
:100BF000F381E02DAD010995DF91CF9108954F92DA
:100C00005F927F928F929F92AF92BF92CF92DF922C
:100C1000EF92FF920F931F93DF93CF93CDB7DEB781
:100C2000A1970FB6F894DEBF0FBECDBF2C01742E76
:100C3000CB01223008F42AE019A231E2C32ED12CD4
:100C4000CC0EDD1E822E9924AA24BB24672D752F7D
:100C5000A50194010E94B00A79018A01C801B70177
:100C6000A50194010E94910A472D461B0894C108D2
:100C7000D1084A3014F4405D01C0495CF60140835C
:100C8000E114F1040105110521F07E2C5F2DC8014E
:100C9000DDCFC201B6010E94EB05A1960FB6F89414
:100CA000DEBF0FBECDBFCF91DF911F910F91FF909F
:100CB000EF90DF90CF90BF90AF909F908F907F90FC
:100CC0005F904F900895DC012115310541F4ED91BD
:100CD000FC910190F081E02D642F099508950E9408
:100CE000FF050895CF92DF92EF92FF920F931F932B
:100CF000CF93DF93EC016A017B012115310541F4AB
:100D0000E881F9810190F081E02D642F09951FC0E1
:100D10002A303105D1F477FF17C0E881F9810190BD
:100D2000F081E02D6DE209958C0144275527BA0129
:100D30004C195D096E097F09CE012AE00E94FF056A
:100D40009801280F391F04C02AE00E94FF059C016A
:100D5000C901DF91CF911F910F91FF90EF90DF902C
:100D6000CF9008957F928F929F92AF92BF92CF9231
:100D7000DF92EF92FF920F931F93CF93DF934C017B
:100D80007A018B01722ECB01BA0120E030E040E005
:100D900050E00E945B0887FD03C0C0E0D0E00EC0B9
:100DA000D401ED91FC910190F081E02DC4016DE240
:100DB0000995EC0117FB109517F9109520E030E02C
:100DC00040E05FE3AA240BC0CA01B90120E030E093
:100DD00040E251E40E945F089B01AC01A394A71478
:100DE00098F3C801B7010E94F7075B016C010E94EC
:100DF000CC087B018C01C401B801A7012AE030E0D6
:100E00000E946306C80FD91F772039F0C40168E03B
:100E100071E00E94EB05C80FD91FC801B7010E94FD
:100E2000F8089B01AC01C601B5010E94F60724C079
:100E300020E030E040E251E40E94C9097B018C01CE
:100E40000E94C7085B016C01CC24B7FCC094DC2C69
:100E5000C401B601A5012AE030E00E947206C80F65
:100E6000D91FC601B5010E94FA089B01AC01C80157
:100E7000B7010E94F6077A947720D1F6CE01DF9170
:100E8000CF911F910F91FF90EF90DF90CF90BF9087
:100E9000AF909F908F907F900895EF92FF920F9365
:100EA0001F937C010E94B2068C01C7010E94CB05F2
:100EB000080F191FC8011F910F91FF90EF9008951F
:100EC000EF92FF920F931F937C010E94EB058C0120
:100ED000C7010E94CB05080F191FC8011F910F9170
:100EE000FF90EF9008951F920F920FB60F9211246A
:100EF0002F933F938F939F93AF93BF938091B002B3
:100F00009091B102A091B202B091B3023091B402BB
:100F10000196A11DB11D232F2D5F2D3720F02D57D8
:100F20000196A11DB11D2093B4028093B00290934D
:100F3000B102A093B202B093B3028091AC0290913F
:100F4000AD02A091AE02B091AF020196A11DB11DFC
:100F50008093AC029093AD02A093AE02B093AF0227
:100F6000BF91AF919F918F913F912F910F900FBEA5
:100F70000F901F901895789484B5826084BD84B5D5
:100F8000816084BD85B5826085BD85B5816085BD84
:100F9000EEE6F0E0808181608083E1E8F0E010829D
:100FA000808182608083808181608083E0E8F0E0DE
:100FB000808181608083E1EBF0E0808184608083C8
:100FC000E0EBF0E0808181608083EAE7F0E08081FF
:100FD000846080838081826080838081816080835F
:100FE0008081806880831092C10008955058BB278B
:100FF000AA270ED094C185D130F08AD120F031F4E7
:101000009F3F11F41EF47AC10EF4E095E7FB70C126
:10101000E92F96D180F3BA17620773078407950703
:1010200018F071F49EF5AEC10EF4E0950B2EBA2FB8
:10103000A02D0B01B90190010C01CA01A0011124DE
:10104000FF27591B99F0593F50F4503E68F11A168A
:10105000F040A22F232F342F4427585FF3CF46951B
:1010600037952795A795F0405395C9F77EF41F163D
:10107000BA0B620B730B840BBAF09150A1F0FF0F07
:10108000BB1F661F771F881FC2F70EC0BA0F621FF3
:10109000731F841F48F4879577956795B795F795E3
:1010A0009E3F08F0B3CF9395880F08F09927EE0F75
:1010B000979587950895F8D008F481E008950CD0AD
:1010C0002EC126D140F01DD130F021F45F3F19F040
:1010D0000FC1511158C112C133D198F39923C9F3EB
:1010E0005523B1F3951B550BBB27AA27621773072E
:1010F000840738F09F5F5F4F220F331F441FAA1FE2
:10110000A9F333D00E2E3AF0E0E830D091505040A1
:10111000E695001CCAF729D0FE2F27D0660F771F4F
:10112000881FBB1F261737074807AB07B0E809F031
:10113000BB0B802DBF01FF2793585F4F2AF09E3FC6
:10114000510568F0D5C01FC15F3FECF3983EDCF35A
:10115000869577956795B795F7959F5FC9F7880F3F
:10116000911D9695879597F90895E1E0660F771F91
:10117000881FBB1F621773078407BA0720F0621B22
:10118000730B840BBA0BEE1F88F7E095089504D01B
:101190006894B111F8C00895DBD088F09F5790F0A3
:1011A000B92F9927B751A0F0D1F0660F771F881F8C
:1011B000991F1AF0BA95C9F712C0B13081F0E2D088
:1011C000B1E00895DFC0672F782F8827B85F39F026
:1011D000B93FCCF3869577956795B395D9F73EF4EB
:1011E00090958095709561957F4F8F4F9F4F089593
:1011F000E89409C097FB3EF49095809570956195B1
:101200007F4F8F4F9F4F9923A9F0F92F96E9BB2766
:101210009395F695879577956795B795F111F8CFE2
:10122000FAF4BB0F11F460FF1BC06F5F7F4F8F4F4D
:101230009F4F16C0882311F096E911C0772321F043
:101240009EE8872F762F05C0662371F096E8862FDB
:1012500070E060E02AF09A95660F771F881FDAF732
:10126000880F9695879597F90895990FBB0B550FA1
:10127000AA0BE0E8FEEF16161706E807F90770F06C
:1012800012161306E407F50760F0BA173CF049F4AC
:101290006217730784079507A7951BF4B901CA0164
:1012A000BA2FB69597950895990F0008550FAA0B78
:1012B000E0E8FEEF16161706E807F907C0F0121669
:1012C0001306E407F50798F0621B730B840B950B6C
:1012D00039F40A2661F0232B242B252B21F40895C1
:1012E0000A2609F4A140A6958FEF811D811D08955E
:1012F00097F99F6780E870E060E008959FEF80ECC9
:10130000089500240A94161617061806090608956B
:1013100000240A9412161306140605060895092ED1
:101320000394000C11F4882352F0BB0F40F4BF2B40
:1013300011F460FF04C06F5F7F4F8F4F9F4F089580
:1013400057FD9058440F551F59F05F3F71F0479576
:10135000880F97FB991F61F09F3F79F0879508955B
:10136000121613061406551FF2CF4695F1DF08C07A
:10137000161617061806991FF1CF86957105610597
:1013800008940895E894BB2766277727CB0197F93F
:1013900008950BD0C4CFB5DF28F0BADF18F095233D
:1013A00009F0A6CFABCF1124EECFCADFA0F3959FF3
:1013B000D1F3950F50E0551F629FF001729FBB273C
:1013C000F00DB11D639FAA27F00DB11DAA1F649FE8
:1013D0006627B00DA11D661F829F2227B00DA11D9B
:1013E000621F739FB00DA11D621F839FA00D611D21
:1013F000221F749F3327A00D611D231F849F600D42
:10140000211D822F762F6A2F11249F5750408AF07A
:10141000E1F088234AF0EE0FFF1FBB1F661F771F06
:10142000881F91505040A9F79E3F510570F060CF42
:10143000AACF5F3FECF3983EDCF3869577956795EE
:10144000B795F795E7959F5FC1F7FE2B880F911D24
:101450009695879597F9089511F40EF44FCF4AC0E9
:1014600077DFD0F39923D9F3CEF39F57550B87FF3E
:1014700051D056959795B0E020F4660F771F881FDE
:10148000BB1F1F930F9300249001A0018001F00166
:10149000A0E80E0F1F1F0A1E511D601B710B800953
:1014A000B50B48F4600F711F801DB51F0E1B1F0B7D
:1014B0000A0A510907C02E0F3F1F4A1F0E0F1F1F98
:1014C0000A1E511D660F771F881FBB1FA695F79533
:1014D000E795F8F60617170708065B07211D311D6B
:1014E000411D0F911F91B901842F9158880F969536
:1014F000879508959F3F49F0915028F486957795F8
:101500006795B7959F5F80389F4F880F9695879511
:1015100097F9089591505040660F771F881FD2F7B2
:101520000895629FD001739FF001829FE00DF11D2D
:10153000649FE00DF11D929FF00D839FF00D749F4D
:10154000F00D659FF00D9927729FB00DE11DF91FF9
:10155000639FB00DE11DF91FBD01CF011124089556
:10156000A1E21A2EAA1BBB1BFD010DC0AA1FBB1FA7
:10157000EE1FFF1FA217B307E407F50720F0A21B19
:10158000B30BE40BF50B661F771F881F991F1A9486
:1015900069F760957095809590959B01AC01BD01B0
:1015A000CF01089597FB092E05260ED057FD04D0D4
:1015B000D7DF0AD0001C38F450954095309521951E
:1015C0003F4F4F4F5F4F0895F6F790958095709578
:1015D00061957F4F8F4F9F4F0895EE0FFF1F05902E
:1015E000F491E02D09942F923F924F925F926F9267
:1015F0007F928F929F92AF92BF92CF92DF92EF92A3
:10160000FF920F931F93CF93DF93CDB7DEB7CA1B23
:10161000DB0B0FB6F894DEBF0FBECDBF09942A884E
:10162000398848885F846E847D848C849B84AA84F6
:10163000B984C884DF80EE80FD800C811B81AA8183
:10164000B981CE0FD11D0FB6F894DEBF0FBECDBF4E
:08165000ED010895F894FFCFAD
:101658006C756D73202D3E002E0001000000060001
:101668000C00040005000B0009000A000700FF0039
:101678000000000905A1059D04CE04AE04F704008E
:00000001FF
